{
  "contractName": "CanvasCore",
  "abi": [
    {
      "constant": true,
      "inputs": [],
      "name": "getCanvas",
      "outputs": [
        {
          "name": "",
          "type": "uint256[]"
        },
        {
          "name": "",
          "type": "uint256[]"
        },
        {
          "name": "",
          "type": "uint256[]"
        },
        {
          "name": "",
          "type": "bool[]"
        },
        {
          "name": "",
          "type": "bool[]"
        }
      ],
      "payable": false,
      "stateMutability": "view",
      "type": "function"
    },
    {
      "constant": true,
      "inputs": [
        {
          "name": "_pixelId",
          "type": "uint256"
        }
      ],
      "name": "getComment",
      "outputs": [
        {
          "name": "",
          "type": "string"
        }
      ],
      "payable": false,
      "stateMutability": "view",
      "type": "function"
    },
    {
      "constant": false,
      "inputs": [
        {
          "name": "_to",
          "type": "address"
        },
        {
          "name": "_pixelId",
          "type": "uint256"
        }
      ],
      "name": "approve",
      "outputs": [],
      "payable": false,
      "stateMutability": "nonpayable",
      "type": "function"
    },
    {
      "constant": true,
      "inputs": [],
      "name": "totalSupply",
      "outputs": [
        {
          "name": "total",
          "type": "uint256"
        }
      ],
      "payable": false,
      "stateMutability": "view",
      "type": "function"
    },
    {
      "constant": false,
      "inputs": [
        {
          "name": "_pixelIds",
          "type": "uint256[]"
        },
        {
          "name": "_colors",
          "type": "uint32[]"
        },
        {
          "name": "_url",
          "type": "string"
        },
        {
          "name": "_comment",
          "type": "string"
        },
        {
          "name": "_price",
          "type": "uint128"
        }
      ],
      "name": "buyPixels",
      "outputs": [],
      "payable": true,
      "stateMutability": "payable",
      "type": "function"
    },
    {
      "constant": false,
      "inputs": [
        {
          "name": "_from",
          "type": "address"
        },
        {
          "name": "_to",
          "type": "address"
        },
        {
          "name": "_pixelId",
          "type": "uint256"
        }
      ],
      "name": "transferFrom",
      "outputs": [],
      "payable": false,
      "stateMutability": "nonpayable",
      "type": "function"
    },
    {
      "constant": false,
      "inputs": [],
      "name": "withdraw",
      "outputs": [],
      "payable": false,
      "stateMutability": "nonpayable",
      "type": "function"
    },
    {
      "constant": true,
      "inputs": [
        {
          "name": "_pixelId",
          "type": "uint256"
        }
      ],
      "name": "getLeaser",
      "outputs": [
        {
          "name": "",
          "type": "address"
        }
      ],
      "payable": false,
      "stateMutability": "view",
      "type": "function"
    },
    {
      "constant": true,
      "inputs": [
        {
          "name": "_pixelId",
          "type": "uint256"
        }
      ],
      "name": "ownerOf",
      "outputs": [
        {
          "name": "owner",
          "type": "address"
        }
      ],
      "payable": false,
      "stateMutability": "view",
      "type": "function"
    },
    {
      "constant": true,
      "inputs": [
        {
          "name": "_owner",
          "type": "address"
        }
      ],
      "name": "balanceOf",
      "outputs": [
        {
          "name": "balance",
          "type": "uint256"
        }
      ],
      "payable": false,
      "stateMutability": "view",
      "type": "function"
    },
    {
      "constant": true,
      "inputs": [],
      "name": "defaultBuyable",
      "outputs": [
        {
          "name": "",
          "type": "bool"
        }
      ],
      "payable": false,
      "stateMutability": "view",
      "type": "function"
    },
    {
      "constant": true,
      "inputs": [
        {
          "name": "_pixelId",
          "type": "uint256"
        }
      ],
      "name": "getURL",
      "outputs": [
        {
          "name": "",
          "type": "string"
        }
      ],
      "payable": false,
      "stateMutability": "view",
      "type": "function"
    },
    {
      "constant": true,
      "inputs": [],
      "name": "owner",
      "outputs": [
        {
          "name": "",
          "type": "address"
        }
      ],
      "payable": false,
      "stateMutability": "view",
      "type": "function"
    },
    {
      "constant": true,
      "inputs": [
        {
          "name": "",
          "type": "uint256"
        }
      ],
      "name": "pixels",
      "outputs": [
        {
          "name": "owner",
          "type": "address"
        },
        {
          "name": "leaser",
          "type": "address"
        },
        {
          "name": "url",
          "type": "string"
        },
        {
          "name": "comment",
          "type": "string"
        },
        {
          "name": "price",
          "type": "uint128"
        },
        {
          "name": "color",
          "type": "uint32"
        },
        {
          "name": "staleTime",
          "type": "uint64"
        }
      ],
      "payable": false,
      "stateMutability": "view",
      "type": "function"
    },
    {
      "constant": false,
      "inputs": [
        {
          "name": "_buyCooldownTime",
          "type": "uint256"
        }
      ],
      "name": "setBuyCooldownTime",
      "outputs": [],
      "payable": false,
      "stateMutability": "nonpayable",
      "type": "function"
    },
    {
      "constant": false,
      "inputs": [
        {
          "name": "_rentCooldownTime",
          "type": "uint256"
        }
      ],
      "name": "setRentCooldownTime",
      "outputs": [],
      "payable": false,
      "stateMutability": "nonpayable",
      "type": "function"
    },
    {
      "constant": false,
      "inputs": [
        {
          "name": "_to",
          "type": "address"
        },
        {
          "name": "_pixelId",
          "type": "uint256"
        }
      ],
      "name": "transfer",
      "outputs": [],
      "payable": false,
      "stateMutability": "nonpayable",
      "type": "function"
    },
    {
      "constant": false,
      "inputs": [
        {
          "name": "_pixelIds",
          "type": "uint256[]"
        },
        {
          "name": "_colors",
          "type": "uint32[]"
        },
        {
          "name": "_url",
          "type": "string"
        },
        {
          "name": "_comment",
          "type": "string"
        }
      ],
      "name": "rentPixels",
      "outputs": [],
      "payable": false,
      "stateMutability": "nonpayable",
      "type": "function"
    },
    {
      "constant": true,
      "inputs": [
        {
          "name": "_pixelId",
          "type": "uint256"
        }
      ],
      "name": "isRentable",
      "outputs": [
        {
          "name": "",
          "type": "bool"
        }
      ],
      "payable": false,
      "stateMutability": "view",
      "type": "function"
    },
    {
      "constant": true,
      "inputs": [],
      "name": "defaultPrice",
      "outputs": [
        {
          "name": "",
          "type": "uint256"
        }
      ],
      "payable": false,
      "stateMutability": "view",
      "type": "function"
    },
    {
      "constant": true,
      "inputs": [
        {
          "name": "_pixelId",
          "type": "uint256"
        }
      ],
      "name": "isBuyable",
      "outputs": [
        {
          "name": "",
          "type": "bool"
        }
      ],
      "payable": false,
      "stateMutability": "view",
      "type": "function"
    },
    {
      "constant": true,
      "inputs": [
        {
          "name": "_pixelId",
          "type": "uint256"
        }
      ],
      "name": "getPrice",
      "outputs": [
        {
          "name": "",
          "type": "uint256"
        }
      ],
      "payable": false,
      "stateMutability": "view",
      "type": "function"
    },
    {
      "constant": false,
      "inputs": [
        {
          "name": "newOwner",
          "type": "address"
        }
      ],
      "name": "transferOwnership",
      "outputs": [],
      "payable": false,
      "stateMutability": "nonpayable",
      "type": "function"
    },
    {
      "constant": true,
      "inputs": [
        {
          "name": "_pixelId",
          "type": "uint256"
        }
      ],
      "name": "getStaleTime",
      "outputs": [
        {
          "name": "",
          "type": "uint256"
        },
        {
          "name": "",
          "type": "uint256"
        }
      ],
      "payable": false,
      "stateMutability": "view",
      "type": "function"
    },
    {
      "inputs": [
        {
          "name": "_totalPixels",
          "type": "uint256"
        },
        {
          "name": "_defaultBuyable",
          "type": "bool"
        },
        {
          "name": "_defaultPrice",
          "type": "uint256"
        }
      ],
      "payable": false,
      "stateMutability": "nonpayable",
      "type": "constructor"
    },
    {
      "anonymous": false,
      "inputs": [],
      "name": "BuyEvent",
      "type": "event"
    },
    {
      "anonymous": false,
      "inputs": [],
      "name": "RentEvent",
      "type": "event"
    },
    {
      "anonymous": false,
      "inputs": [
        {
          "indexed": false,
          "name": "from",
          "type": "address"
        },
        {
          "indexed": false,
          "name": "to",
          "type": "address"
        },
        {
          "indexed": false,
          "name": "tokenId",
          "type": "uint256"
        }
      ],
      "name": "Transfer",
      "type": "event"
    },
    {
      "anonymous": false,
      "inputs": [
        {
          "indexed": false,
          "name": "owner",
          "type": "address"
        },
        {
          "indexed": false,
          "name": "approved",
          "type": "address"
        },
        {
          "indexed": false,
          "name": "tokenId",
          "type": "uint256"
        }
      ],
      "name": "Approval",
      "type": "event"
    }
  ],
  "bytecode": "0x6060604052600a600755600a600855341561001957600080fd5b60405160608061279a83398101604052808051906020019091908051906020019091908051906020019091905050823380600160006101000a81548173ffffffffffffffffffffffffffffffffffffffff021916908373ffffffffffffffffffffffffffffffffffffffff1602179055508160008190555060005460026000600160009054906101000a900473ffffffffffffffffffffffffffffffffffffffff1673ffffffffffffffffffffffffffffffffffffffff1673ffffffffffffffffffffffffffffffffffffffff16815260200190815260200160002081905550505033600560006101000a81548173ffffffffffffffffffffffffffffffffffffffff021916908373ffffffffffffffffffffffffffffffffffffffff16021790555033600660006101000a81548173ffffffffffffffffffffffffffffffffffffffff021916908373ffffffffffffffffffffffffffffffffffffffff16021790555080600b8190555081600a60006101000a81548160ff0219169083151502179055505050506125ea806101b06000396000f30060606040526004361061013e576000357c0100000000000000000000000000000000000000000000000000000000900463ffffffff16806306a00d43146101435780630800e300146102cd578063095ea7b31461036957806318160ddd146103ab57806323716d4d146103d457806323b872dd146105045780633ccfd60b14610565578063523504d01461057a5780636352211e146105dd57806370a08231146106405780637a9b52da1461068d57806385d4755b146106ba5780638da5cb5b146107565780638da7f232146107ab5780639479528e146109ac57806395d093a9146109cf578063a9059cbb146109f2578063a9be45fa14610a34578063c392598d14610b54578063e69e04b314610b8f578063e738c7c814610bb8578063e757223014610bf3578063f2fde38b14610c2a578063fc53ff8014610c63575b600080fd5b341561014e57600080fd5b610156610ca1565b60405180806020018060200180602001806020018060200186810386528b818151815260200191508051906020019060200280838360005b838110156101a957808201518184015260208101905061018e565b5050505090500186810385528a818151815260200191508051906020019060200280838360005b838110156101eb5780820151818401526020810190506101d0565b50505050905001868103845289818151815260200191508051906020019060200280838360005b8381101561022d578082015181840152602081019050610212565b50505050905001868103835288818151815260200191508051906020019060200280838360005b8381101561026f578082015181840152602081019050610254565b50505050905001868103825287818151815260200191508051906020019060200280838360005b838110156102b1578082015181840152602081019050610296565b505050509050019a505050505050505050505060405180910390f35b34156102d857600080fd5b6102ee6004808035906020019091905050610f15565b6040518080602001828103825283818151815260200191508051906020019080838360005b8381101561032e578082015181840152602081019050610313565b50505050905090810190601f16801561035b5780820380516001836020036101000a031916815260200191505b509250505060405180910390f35b341561037457600080fd5b6103a9600480803573ffffffffffffffffffffffffffffffffffffffff16906020019091908035906020019091905050611061565b005b34156103b657600080fd5b6103be611142565b6040518082815260200191505060405180910390f35b6105026004808035906020019082018035906020019080806020026020016040519081016040528093929190818152602001838360200280828437820191505050505050919080359060200190820180359060200190808060200260200160405190810160405280939291908181526020018383602002808284378201915050505050509190803590602001908201803590602001908080601f0160208091040260200160405190810160405280939291908181526020018383808284378201915050505050509190803590602001908201803590602001908080601f016020809104026020016040519081016040528093929190818152602001838380828437820191505050505050919080356fffffffffffffffffffffffffffffffff1690602001909190505061114b565b005b341561050f57600080fd5b610563600480803573ffffffffffffffffffffffffffffffffffffffff1690602001909190803573ffffffffffffffffffffffffffffffffffffffff169060200190919080359060200190919050506114dc565b005b341561057057600080fd5b610578611571565b005b341561058557600080fd5b61059b600480803590602001909190505061167d565b604051808273ffffffffffffffffffffffffffffffffffffffff1673ffffffffffffffffffffffffffffffffffffffff16815260200191505060405180910390f35b34156105e857600080fd5b6105fe600480803590602001909190505061175d565b604051808273ffffffffffffffffffffffffffffffffffffffff1673ffffffffffffffffffffffffffffffffffffffff16815260200191505060405180910390f35b341561064b57600080fd5b610677600480803573ffffffffffffffffffffffffffffffffffffffff1690602001909190505061183d565b6040518082815260200191505060405180910390f35b341561069857600080fd5b6106a0611886565b604051808215151515815260200191505060405180910390f35b34156106c557600080fd5b6106db6004808035906020019091905050611899565b6040518080602001828103825283818151815260200191508051906020019080838360005b8381101561071b578082015181840152602081019050610700565b50505050905090810190601f1680156107485780820380516001836020036101000a031916815260200191505b509250505060405180910390f35b341561076157600080fd5b6107696119e5565b604051808273ffffffffffffffffffffffffffffffffffffffff1673ffffffffffffffffffffffffffffffffffffffff16815260200191505060405180910390f35b34156107b657600080fd5b6107cc6004808035906020019091905050611a0b565b604051808873ffffffffffffffffffffffffffffffffffffffff1673ffffffffffffffffffffffffffffffffffffffff1681526020018773ffffffffffffffffffffffffffffffffffffffff1673ffffffffffffffffffffffffffffffffffffffff1681526020018060200180602001866fffffffffffffffffffffffffffffffff166fffffffffffffffffffffffffffffffff1681526020018563ffffffff1663ffffffff1681526020018467ffffffffffffffff1667ffffffffffffffff1681526020018381038352888181546001816001161561010002031660029004815260200191508054600181600116156101000203166002900480156109135780601f106108e857610100808354040283529160200191610913565b820191906000526020600020905b8154815290600101906020018083116108f657829003601f168201915b50508381038252878181546001816001161561010002031660029004815260200191508054600181600116156101000203166002900480156109965780601f1061096b57610100808354040283529160200191610996565b820191906000526020600020905b81548152906001019060200180831161097957829003601f168201915b5050995050505050505050505060405180910390f35b34156109b757600080fd5b6109cd6004808035906020019091905050611acb565b005b34156109da57600080fd5b6109f06004808035906020019091905050611b31565b005b34156109fd57600080fd5b610a32600480803573ffffffffffffffffffffffffffffffffffffffff16906020019091908035906020019091905050611b97565b005b3415610a3f57600080fd5b610b526004808035906020019082018035906020019080806020026020016040519081016040528093929190818152602001838360200280828437820191505050505050919080359060200190820180359060200190808060200260200160405190810160405280939291908181526020018383602002808284378201915050505050509190803590602001908201803590602001908080601f0160208091040260200160405190810160405280939291908181526020018383808284378201915050505050509190803590602001908201803590602001908080601f01602080910402602001604051908101604052809392919081815260200183838082843782019150505050505091905050611c16565b005b3415610b5f57600080fd5b610b756004808035906020019091905050611da3565b604051808215151515815260200191505060405180910390f35b3415610b9a57600080fd5b610ba2611e5b565b6040518082815260200191505060405180910390f35b3415610bc357600080fd5b610bd96004808035906020019091905050611e61565b604051808215151515815260200191505060405180910390f35b3415610bfe57600080fd5b610c146004808035906020019091905050611f4e565b6040518082815260200191505060405180910390f35b3415610c3557600080fd5b610c61600480803573ffffffffffffffffffffffffffffffffffffffff16906020019091905050612033565b005b3415610c6e57600080fd5b610c84600480803590602001909190505061210f565b604051808381526020018281526020019250505060405180910390f35b610ca96124b1565b610cb16124b1565b610cb96124b1565b610cc16124c5565b610cc96124c5565b6000610cd36124b1565b610cdb6124b1565b610ce36124b1565b610ceb6124c5565b610cf36124c5565b600080600c80549050975087604051805910610d0c5750595b9080825280602002602001820160405250965087604051805910610d2d5750595b9080825280602002602001820160405250955087604051805910610d4e5750595b9080825280602002602001820160405250945087604051805910610d6f5750595b9080825280602002602001820160405250935087604051805910610d905750595b90808252806020026020018201604052509250600090505b87811015610ef757600c81815481101515610dbf57fe5b9060005260206000209001549150818782815181101515610ddc57fe5b90602001906020020181815250506004600083815260200190815260200160002060040160109054906101000a900463ffffffff1663ffffffff168682815181101515610e2557fe5b90602001906020020181815250506004600083815260200190815260200160002060040160009054906101000a90046fffffffffffffffffffffffffffffffff166fffffffffffffffffffffffffffffffff168582815181101515610e8657fe5b9060200190602002018181525050610e9d82611e61565b8482815181101515610eab57fe5b9060200190602002019015159081151581525050610ec882611da3565b8382815181101515610ed657fe5b90602001906020020190151590811515815250508080600101915050610da8565b86868686869c509c509c509c509c5050505050505050509091929394565b610f1d6124d9565b8160008110158015610f30575060005481105b1515610f3b57600080fd5b60006004600085815260200190815260200160002060000160009054906101000a900473ffffffffffffffffffffffffffffffffffffffff1673ffffffffffffffffffffffffffffffffffffffff1614151561104757600460008481526020019081526020016000206003018054600181600116156101000203166002900480601f01602080910402602001604051908101604052809291908181526020018280546001816001161561010002031660029004801561103b5780601f106110105761010080835404028352916020019161103b565b820191906000526020600020905b81548152906001019060200180831161101e57829003601f168201915b5050505050915061105b565b602060405190810160405280600081525091505b50919050565b8060008110158015611074575060005481105b151561107f57600080fd5b6110893383612154565b151561109457600080fd5b61109e8284612195565b7f8c5be1e5ebec7d5bd14f71427d1e84f3dd0314c0f7b2291e5b200ac8c7c3b925338484604051808473ffffffffffffffffffffffffffffffffffffffff1673ffffffffffffffffffffffffffffffffffffffff1681526020018373ffffffffffffffffffffffffffffffffffffffff1673ffffffffffffffffffffffffffffffffffffffff168152602001828152602001935050505060405180910390a1505050565b60008054905090565b60008060008060008060009550600094505b8a518510156111a9578a8581518110151561117457fe5b90602001906020020151935061118984611e61565b1561119c5761119784611f4e565b860195505b848060010195505061115d565b3492508583101515156111bb57600080fd5b858303600960003373ffffffffffffffffffffffffffffffffffffffff1673ffffffffffffffffffffffffffffffffffffffff1681526020019081526020016000206000828254019250508190555042600754019150600094505b8a518510156114a3578a8581518110151561122d57fe5b906020019060200201519350600460008c8781518110151561124b57fe5b906020019060200201518152602001908152602001600020905061126e84611e61565b156114965761127c84611f4e565b600960006112898761175d565b73ffffffffffffffffffffffffffffffffffffffff1673ffffffffffffffffffffffffffffffffffffffff1681526020019081526020016000206000828254019250508190555060008160000160009054906101000a900473ffffffffffffffffffffffffffffffffffffffff1673ffffffffffffffffffffffffffffffffffffffff16141561133d57600c805480600101828161132791906124ed565b9160005260206000209001600086909190915055505b338160000160006101000a81548173ffffffffffffffffffffffffffffffffffffffff021916908373ffffffffffffffffffffffffffffffffffffffff160217905550338160010160006101000a81548173ffffffffffffffffffffffffffffffffffffffff021916908373ffffffffffffffffffffffffffffffffffffffff16021790555089858151811015156113d157fe5b906020019060200201518160040160106101000a81548163ffffffff021916908363ffffffff160217905550868160040160006101000a8154816fffffffffffffffffffffffffffffffff02191690836fffffffffffffffffffffffffffffffff160217905550818160040160146101000a81548167ffffffffffffffff021916908367ffffffffffffffff1602179055508881600201908051906020019061147b929190612519565b5087816003019080519060200190611494929190612519565b505b8480600101955050611216565b7f6302ce134f1d33daa9f8c2aa72e87d2644651d9897fc5c7af1e531f64bdc5de560405160405180910390a15050505050505050505050565b80600081101580156114ef575060005481105b15156114fa57600080fd5b600073ffffffffffffffffffffffffffffffffffffffff168373ffffffffffffffffffffffffffffffffffffffff161415151561153657600080fd5b61154083836121eb565b151561154b57600080fd5b6115558483612154565b151561156057600080fd5b61156b848484612257565b50505050565b6000600960003373ffffffffffffffffffffffffffffffffffffffff1673ffffffffffffffffffffffffffffffffffffffff1681526020019081526020016000205490506000600960003373ffffffffffffffffffffffffffffffffffffffff1673ffffffffffffffffffffffffffffffffffffffff168152602001908152602001600020819055503373ffffffffffffffffffffffffffffffffffffffff166108fc829081150290604051600060405180830381858888f19350505050151561167a5780600960003373ffffffffffffffffffffffffffffffffffffffff1673ffffffffffffffffffffffffffffffffffffffff168152602001908152602001600020819055505b50565b60008160008110158015611692575060005481105b151561169d57600080fd5b60006004600085815260200190815260200160002060000160009054906101000a900473ffffffffffffffffffffffffffffffffffffffff1673ffffffffffffffffffffffffffffffffffffffff16141515611731576004600084815260200190815260200160002060010160009054906101000a900473ffffffffffffffffffffffffffffffffffffffff169150611757565b600160009054906101000a900473ffffffffffffffffffffffffffffffffffffffff1691505b50919050565b60008160008110158015611772575060005481105b151561177d57600080fd5b60006004600085815260200190815260200160002060000160009054906101000a900473ffffffffffffffffffffffffffffffffffffffff1673ffffffffffffffffffffffffffffffffffffffff16141515611811576004600084815260200190815260200160002060000160009054906101000a900473ffffffffffffffffffffffffffffffffffffffff169150611837565b600160009054906101000a900473ffffffffffffffffffffffffffffffffffffffff1691505b50919050565b6000600260008373ffffffffffffffffffffffffffffffffffffffff1673ffffffffffffffffffffffffffffffffffffffff168152602001908152602001600020549050919050565b600a60009054906101000a900460ff1681565b6118a16124d9565b81600081101580156118b4575060005481105b15156118bf57600080fd5b60006004600085815260200190815260200160002060000160009054906101000a900473ffffffffffffffffffffffffffffffffffffffff1673ffffffffffffffffffffffffffffffffffffffff161415156119cb57600460008481526020019081526020016000206002018054600181600116156101000203166002900480601f0160208091040260200160405190810160405280929190818152602001828054600181600116156101000203166002900480156119bf5780601f10611994576101008083540402835291602001916119bf565b820191906000526020600020905b8154815290600101906020018083116119a257829003601f168201915b505050505091506119df565b602060405190810160405280600081525091505b50919050565b600560009054906101000a900473ffffffffffffffffffffffffffffffffffffffff1681565b60046020528060005260406000206000915090508060000160009054906101000a900473ffffffffffffffffffffffffffffffffffffffff16908060010160009054906101000a900473ffffffffffffffffffffffffffffffffffffffff1690806002019080600301908060040160009054906101000a90046fffffffffffffffffffffffffffffffff16908060040160109054906101000a900463ffffffff16908060040160149054906101000a900467ffffffffffffffff16905087565b600560009054906101000a900473ffffffffffffffffffffffffffffffffffffffff1673ffffffffffffffffffffffffffffffffffffffff163373ffffffffffffffffffffffffffffffffffffffff16141515611b2757600080fd5b8060078190555050565b600560009054906101000a900473ffffffffffffffffffffffffffffffffffffffff1673ffffffffffffffffffffffffffffffffffffffff163373ffffffffffffffffffffffffffffffffffffffff16141515611b8d57600080fd5b8060088190555050565b8060008110158015611baa575060005481105b1515611bb557600080fd5b600073ffffffffffffffffffffffffffffffffffffffff168373ffffffffffffffffffffffffffffffffffffffff1614151515611bf157600080fd5b611bfb3383612154565b1515611c0657600080fd5b611c11338484612257565b505050565b60008060008042600854019150600093505b8751841015611d6d578784815181101515611c3f57fe5b906020019060200201519250600460008986815181101515611c5d57fe5b9060200190602002015181526020019081526020016000209050611c8083611da3565b15611d6057338160010160006101000a81548173ffffffffffffffffffffffffffffffffffffffff021916908373ffffffffffffffffffffffffffffffffffffffff1602179055508684815181101515611cd657fe5b906020019060200201518160040160106101000a81548163ffffffff021916908363ffffffff160217905550818160040160146101000a81548167ffffffffffffffff021916908367ffffffffffffffff16021790555085816002019080519060200190611d45929190612519565b5084816003019080519060200190611d5e929190612519565b505b8380600101945050611c28565b7fa5a79cb1f95935f31bbae187273d06dbcac3ede31a5fe8fbd6f6f0b23894e9cf60405160405180910390a15050505050505050565b60008160008110158015611db8575060005481105b1515611dc357600080fd5b60006004600085815260200190815260200160002060000160009054906101000a900473ffffffffffffffffffffffffffffffffffffffff1673ffffffffffffffffffffffffffffffffffffffff16118015611e535750426004600085815260200190815260200160002060040160149054906101000a900467ffffffffffffffff1667ffffffffffffffff1611155b915050919050565b600b5481565b60008160008110158015611e76575060005481105b1515611e8157600080fd5b60006004600085815260200190815260200160002060040160009054906101000a90046fffffffffffffffffffffffffffffffff166fffffffffffffffffffffffffffffffff161115611ed75760019150611f48565b60006004600085815260200190815260200160002060000160009054906101000a900473ffffffffffffffffffffffffffffffffffffffff1673ffffffffffffffffffffffffffffffffffffffff161415611f4357600a60009054906101000a900460ff169150611f48565b600091505b50919050565b60008160008110158015611f63575060005481105b1515611f6e57600080fd5b60006004600085815260200190815260200160002060000160009054906101000a900473ffffffffffffffffffffffffffffffffffffffff1673ffffffffffffffffffffffffffffffffffffffff16148015611fd65750600a60009054906101000a900460ff165b15611fe557600b54915061202d565b6004600084815260200190815260200160002060040160009054906101000a90046fffffffffffffffffffffffffffffffff166fffffffffffffffffffffffffffffffff1691505b50919050565b600560009054906101000a900473ffffffffffffffffffffffffffffffffffffffff1673ffffffffffffffffffffffffffffffffffffffff163373ffffffffffffffffffffffffffffffffffffffff1614151561208f57600080fd5b600073ffffffffffffffffffffffffffffffffffffffff168173ffffffffffffffffffffffffffffffffffffffff16141515156120cb57600080fd5b80600560006101000a81548173ffffffffffffffffffffffffffffffffffffffff021916908373ffffffffffffffffffffffffffffffffffffffff16021790555050565b6000806004600084815260200190815260200160002060040160149054906101000a900467ffffffffffffffff16428167ffffffffffffffff16915091509150915091565b60008273ffffffffffffffffffffffffffffffffffffffff166121768361175d565b73ffffffffffffffffffffffffffffffffffffffff1614905092915050565b806003600084815260200190815260200160002060006101000a81548173ffffffffffffffffffffffffffffffffffffffff021916908373ffffffffffffffffffffffffffffffffffffffff1602179055505050565b60008273ffffffffffffffffffffffffffffffffffffffff166003600084815260200190815260200160002060009054906101000a900473ffffffffffffffffffffffffffffffffffffffff1673ffffffffffffffffffffffffffffffffffffffff1614905092915050565b600260008373ffffffffffffffffffffffffffffffffffffffff1673ffffffffffffffffffffffffffffffffffffffff16815260200190815260200160002060008154809291906001019190505550816004600083815260200190815260200160002060000160006101000a81548173ffffffffffffffffffffffffffffffffffffffff021916908373ffffffffffffffffffffffffffffffffffffffff160217905550816004600083815260200190815260200160002060010160006101000a81548173ffffffffffffffffffffffffffffffffffffffff021916908373ffffffffffffffffffffffffffffffffffffffff160217905550600073ffffffffffffffffffffffffffffffffffffffff168373ffffffffffffffffffffffffffffffffffffffff1614151561240d57600260008473ffffffffffffffffffffffffffffffffffffffff1673ffffffffffffffffffffffffffffffffffffffff16815260200190815260200160002060008154809291906001900391905055506003600082815260200190815260200160002060006101000a81549073ffffffffffffffffffffffffffffffffffffffff02191690555b7fddf252ad1be2c89b69c2b068fc378daa952ba7f163c4a11628f55a4df523b3ef838383604051808473ffffffffffffffffffffffffffffffffffffffff1673ffffffffffffffffffffffffffffffffffffffff1681526020018373ffffffffffffffffffffffffffffffffffffffff1673ffffffffffffffffffffffffffffffffffffffff168152602001828152602001935050505060405180910390a1505050565b602060405190810160405280600081525090565b602060405190810160405280600081525090565b602060405190810160405280600081525090565b815481835581811511612514578183600052602060002091820191016125139190612599565b5b505050565b828054600181600116156101000203166002900490600052602060002090601f016020900481019282601f1061255a57805160ff1916838001178555612588565b82800160010185558215612588579182015b8281111561258757825182559160200191906001019061256c565b5b5090506125959190612599565b5090565b6125bb91905b808211156125b757600081600090555060010161259f565b5090565b905600a165627a7a723058203bfec9b85be3654425d200fe2938fff2f6d3fcc1e13cd50ebbac40ad98eba2530029",
  "source": "pragma solidity ^0.4.17;\n\nimport \"./Ownable.sol\";\nimport \"./PixelStore.sol\";\n\ncontract CanvasCore is PixelStore, Ownable {\n\n    event BuyEvent();\n    event RentEvent();\n\n    address creator;\n\n    // Default set for  the cooldown times for buying and selling.\n    // This can be modified in onlyOwner functions.\n    uint buyCooldownTime = 10 seconds;\n    uint rentCooldownTime = 10 seconds;\n\n    /// Excess amount paid by the users is kept here and can be withdrawn.\n    mapping (address => uint) amountToWithdraw;\n    /// Default values for all pixelIds initially created and owned by the creators\n    bool public defaultBuyable;\n    uint public defaultPrice;\n\n    /// A dynamic list of pixels.\n    uint[] pixelsInMarket; \n\n    /// Sets up the canvas with the total pixels (side * side)\n    /// the default state of all pixels (all buyable or all unbuyable)\n    /// and for each pixel owned by the creators, the default price of the pixel\n    function CanvasCore(\n            uint _totalPixels,\n            bool _defaultBuyable,\n            uint _defaultPrice)\n            public PixelStore(_totalPixels, msg.sender)\n    {\n        creator = msg.sender;\n        defaultPrice = _defaultPrice; // in wei\n        defaultBuyable = _defaultBuyable;\n    }\n\n    function setBuyCooldownTime(uint _buyCooldownTime) external onlyOwner {\n        buyCooldownTime = _buyCooldownTime;\n    }\n\n    function setRentCooldownTime(uint _rentCooldownTime) external onlyOwner {\n        rentCooldownTime = _rentCooldownTime;\n    }\n    \n    function getURL(uint _pixelId) public view isValidPixelId(_pixelId) returns (string) {\n        if (pixels[_pixelId].owner != 0) {\n            return pixels[_pixelId].url;\n        }\n        return \"\";\n    }\n\n    function getComment(uint _pixelId) public view isValidPixelId(_pixelId) returns (string) {\n        if (pixels[_pixelId].owner != 0) {\n            return pixels[_pixelId].comment;\n        }\n        return \"\";\n    }\n\n\n    /// Returns true if the given pixelId is buyable\n    // If it has a non-zero price, or it is owned by the creators of the\n    // contract and defaultBuyable is true, then it returns true.\n    function isBuyable(uint _pixelId) public view isValidPixelId(_pixelId) returns (bool) {\n        if (pixels[_pixelId].price > 0)\n            return true;\n        if (pixels[_pixelId].owner == 0)\n            return defaultBuyable;\n        return false;\n    }\n\n    /// Returns true if the given pixelId is rentable.\n    // If it has an owner, its in the market and it became stale before the\n    // current time, then it is marked as rentable.\n    function isRentable(uint _pixelId) public view isValidPixelId(_pixelId) returns (bool) {\n      return (pixels[_pixelId].owner > 0 && pixels[_pixelId].staleTime <= now);\n    }\n\n    /// Returns the price of any pixelId\n    function getPrice(uint _pixelId) public view isValidPixelId(_pixelId) returns (uint) {\n        if (pixels[_pixelId].owner == 0 && defaultBuyable)\n            return defaultPrice;\n\n        return pixels[_pixelId].price;\n    }\n\n    /// Gets the current leaser of the provided pixelId\n    function getLeaser(uint _pixelId) public view isValidPixelId(_pixelId) returns (address) {\n        if (pixels[_pixelId].owner != 0) {\n            return pixels[_pixelId].leaser;\n        }\n        return defaultOwner;\n    }\n\n    function getStaleTime(uint _pixelId) public view returns (uint, uint) {\n        return (pixels[_pixelId].staleTime, now);\n    }\n\n    /// Takes in an array of pixelIds to buy. Also accepts payment.\n    /// Buys and charges user for all pixels buyable.\n    /// Sets that user as the owner and current leaser for those pixelIds\n    /// Puts the remaining money in a amountToWithdraw table which the user\n    /// can get back his excess cash.\n    function buyPixels(\n        uint[] _pixelIds,\n        uint32[] _colors,\n        string _url,\n        string _comment,\n        uint128 _price)\n        public\n        payable\n    {\n        // This block checks if the sender provided enough capital for the purchase.\n        uint totalCost = 0;\n        uint i;\n        uint pixId;\n        for (i = 0; i < _pixelIds.length; i++) {\n            pixId = _pixelIds[i];\n            if (isBuyable(pixId)) {\n                totalCost += getPrice(pixId);\n            }\n        }\n        uint amount = msg.value;\n        require(amount >= totalCost);\n\n        // Sets the excess funds in a withdrawAmount mapping.\n        amountToWithdraw[msg.sender] += (amount - totalCost);\n\n        // Sets the staleTime, which is the time when the pixel is up for renting\n        uint64 _staleTime = uint64(buyCooldownTime + now);\n\n        // Updates the owner and metadata.\n        for (i = 0; i < _pixelIds.length; i++) {\n            pixId = _pixelIds[i];\n            Pixel storage pixel = pixels[_pixelIds[i]];\n            if (isBuyable(pixId)) {\n                amountToWithdraw[ownerOf(pixId)] += getPrice(pixId);\n                if (pixel.owner == 0) {\n                    pixelsInMarket.push(pixId);\n                }\n                pixel.owner = msg.sender;\n                pixel.leaser = msg.sender;\n                pixel.color = _colors[i];\n                pixel.price = _price;\n                pixel.staleTime = _staleTime;\n                pixel.url = _url;\n                pixel.comment = _comment;\n            }\n        }\n        BuyEvent();\n    }\n\n    /// Takes in an array of pixelIds to rent. Also accepts payment.\n    /// Rents and charges user for all pixels buyable.\n    /// Sets that user as the current leaser for those pixelIds\n    /// Puts the remaining money in a amountToWithdraw table which the user\n    /// can get back his excess cash.\n    function rentPixels(\n        uint[] _pixelIds,\n        uint32[] _colors,\n        string _url,\n        string _comment)\n        public\n    {\n        uint i;\n        uint pixId;\n        uint64 _rentedUntilTime = uint64(rentCooldownTime + now);\n\n        // Updates the owner and metadata.\n        for (i = 0; i < _pixelIds.length; i++) {\n            pixId = _pixelIds[i];\n            Pixel storage pixel = pixels[_pixelIds[i]];\n            if (isRentable(pixId)) {\n                pixel.leaser = msg.sender;\n                pixel.color = _colors[i];\n                pixel.staleTime = _rentedUntilTime;\n                pixel.url = _url;\n                pixel.comment = _comment;\n            }\n        }\n        RentEvent();\n    }\n\n\n    // Returns all the pixels that have been bought. These ignores the pixels that have\n    // not undergone any transaction and are owned by the creator\n    // Returns <= totalPixels elements in each element\n    function getCanvas() external view returns (uint[], uint[], uint[], bool[], bool[]) {\n        uint setPixels = pixelsInMarket.length;\n        uint[] memory _pixelIds = new uint[](setPixels);\n        uint[] memory _colors = new uint[](setPixels);\n        uint[] memory _prices = new uint[](setPixels);\n        bool[] memory _buyable = new bool[](setPixels);\n        bool[] memory  _rentable = new bool[](setPixels);\n\n        uint pixId;\n        for (uint counter = 0; counter < setPixels; counter++) {\n            pixId = pixelsInMarket[counter];\n            _pixelIds[counter] = pixId;\n            _colors[counter] = pixels[pixId].color;\n            _prices[counter] = pixels[pixId].price;\n            _buyable[counter] = isBuyable(pixId);\n            _rentable[counter] = isRentable(pixId);\n        }\n\n        return (_pixelIds, _colors, _prices, _buyable, _rentable);\n    }\n\n    function withdraw() public {\n        uint amount = amountToWithdraw[msg.sender];\n        amountToWithdraw[msg.sender] = 0;\n\n        if (!msg.sender.send(amount))\n            amountToWithdraw[msg.sender] = amount;\n    }\n}",
  "sourcePath": "/Users/chrisumbach/Documents/CryptoBlockchain/Refactor-Fund-Eth/contracts/CanvasCore.sol",
  "compiler": {
    "name": "solc",
    "version": "0.4.18+commit.9cf6e910.Emscripten.clang"
  },
  "schemaVersion": "1.0.1",
  "updatedAt": "2018-01-19T01:11:37.758Z"
}