{
  "contractName": "PixelStore",
  "abi": [
    {
      "constant": false,
      "inputs": [
        {
          "name": "_to",
          "type": "address"
        },
        {
          "name": "_pixelId",
          "type": "uint256"
        }
      ],
      "name": "approve",
      "outputs": [],
      "payable": false,
      "stateMutability": "nonpayable",
      "type": "function"
    },
    {
      "constant": true,
      "inputs": [],
      "name": "totalSupply",
      "outputs": [
        {
          "name": "total",
          "type": "uint256"
        }
      ],
      "payable": false,
      "stateMutability": "view",
      "type": "function"
    },
    {
      "constant": false,
      "inputs": [
        {
          "name": "_from",
          "type": "address"
        },
        {
          "name": "_to",
          "type": "address"
        },
        {
          "name": "_pixelId",
          "type": "uint256"
        }
      ],
      "name": "transferFrom",
      "outputs": [],
      "payable": false,
      "stateMutability": "nonpayable",
      "type": "function"
    },
    {
      "constant": true,
      "inputs": [
        {
          "name": "_pixelId",
          "type": "uint256"
        }
      ],
      "name": "ownerOf",
      "outputs": [
        {
          "name": "owner",
          "type": "address"
        }
      ],
      "payable": false,
      "stateMutability": "view",
      "type": "function"
    },
    {
      "constant": true,
      "inputs": [
        {
          "name": "_owner",
          "type": "address"
        }
      ],
      "name": "balanceOf",
      "outputs": [
        {
          "name": "balance",
          "type": "uint256"
        }
      ],
      "payable": false,
      "stateMutability": "view",
      "type": "function"
    },
    {
      "constant": true,
      "inputs": [
        {
          "name": "",
          "type": "uint256"
        }
      ],
      "name": "pixels",
      "outputs": [
        {
          "name": "owner",
          "type": "address"
        },
        {
          "name": "leaser",
          "type": "address"
        },
        {
          "name": "url",
          "type": "string"
        },
        {
          "name": "comment",
          "type": "string"
        },
        {
          "name": "price",
          "type": "uint128"
        },
        {
          "name": "color",
          "type": "uint32"
        },
        {
          "name": "staleTime",
          "type": "uint64"
        }
      ],
      "payable": false,
      "stateMutability": "view",
      "type": "function"
    },
    {
      "constant": false,
      "inputs": [
        {
          "name": "_to",
          "type": "address"
        },
        {
          "name": "_pixelId",
          "type": "uint256"
        }
      ],
      "name": "transfer",
      "outputs": [],
      "payable": false,
      "stateMutability": "nonpayable",
      "type": "function"
    },
    {
      "inputs": [
        {
          "name": "_totalPixels",
          "type": "uint256"
        },
        {
          "name": "_defaultOwner",
          "type": "address"
        }
      ],
      "payable": false,
      "stateMutability": "nonpayable",
      "type": "constructor"
    },
    {
      "anonymous": false,
      "inputs": [
        {
          "indexed": false,
          "name": "from",
          "type": "address"
        },
        {
          "indexed": false,
          "name": "to",
          "type": "address"
        },
        {
          "indexed": false,
          "name": "tokenId",
          "type": "uint256"
        }
      ],
      "name": "Transfer",
      "type": "event"
    },
    {
      "anonymous": false,
      "inputs": [
        {
          "indexed": false,
          "name": "owner",
          "type": "address"
        },
        {
          "indexed": false,
          "name": "approved",
          "type": "address"
        },
        {
          "indexed": false,
          "name": "tokenId",
          "type": "uint256"
        }
      ],
      "name": "Approval",
      "type": "event"
    }
  ],
  "bytecode": "0x6060604052341561000f57600080fd5b604051604080610cac8339810160405280805190602001909190805190602001909190505080600160006101000a81548173ffffffffffffffffffffffffffffffffffffffff021916908373ffffffffffffffffffffffffffffffffffffffff1602179055508160008190555060005460026000600160009054906101000a900473ffffffffffffffffffffffffffffffffffffffff1673ffffffffffffffffffffffffffffffffffffffff1673ffffffffffffffffffffffffffffffffffffffff168152602001908152602001600020819055505050610bb7806100f56000396000f300606060405260043610610083576000357c0100000000000000000000000000000000000000000000000000000000900463ffffffff168063095ea7b31461008857806318160ddd146100ca57806323b872dd146100f35780636352211e1461015457806370a08231146101b75780638da7f23214610204578063a9059cbb14610405575b600080fd5b341561009357600080fd5b6100c8600480803573ffffffffffffffffffffffffffffffffffffffff16906020019091908035906020019091905050610447565b005b34156100d557600080fd5b6100dd610528565b6040518082815260200191505060405180910390f35b34156100fe57600080fd5b610152600480803573ffffffffffffffffffffffffffffffffffffffff1690602001909190803573ffffffffffffffffffffffffffffffffffffffff16906020019091908035906020019091905050610531565b005b341561015f57600080fd5b61017560048080359060200190919050506105c6565b604051808273ffffffffffffffffffffffffffffffffffffffff1673ffffffffffffffffffffffffffffffffffffffff16815260200191505060405180910390f35b34156101c257600080fd5b6101ee600480803573ffffffffffffffffffffffffffffffffffffffff169060200190919050506106a6565b6040518082815260200191505060405180910390f35b341561020f57600080fd5b61022560048080359060200190919050506106ef565b604051808873ffffffffffffffffffffffffffffffffffffffff1673ffffffffffffffffffffffffffffffffffffffff1681526020018773ffffffffffffffffffffffffffffffffffffffff1673ffffffffffffffffffffffffffffffffffffffff1681526020018060200180602001866fffffffffffffffffffffffffffffffff166fffffffffffffffffffffffffffffffff1681526020018563ffffffff1663ffffffff1681526020018467ffffffffffffffff1667ffffffffffffffff16815260200183810383528881815460018160011615610100020316600290048152602001915080546001816001161561010002031660029004801561036c5780601f106103415761010080835404028352916020019161036c565b820191906000526020600020905b81548152906001019060200180831161034f57829003601f168201915b50508381038252878181546001816001161561010002031660029004815260200191508054600181600116156101000203166002900480156103ef5780601f106103c4576101008083540402835291602001916103ef565b820191906000526020600020905b8154815290600101906020018083116103d257829003601f168201915b5050995050505050505050505060405180910390f35b341561041057600080fd5b610445600480803573ffffffffffffffffffffffffffffffffffffffff169060200190919080359060200190919050506107af565b005b806000811015801561045a575060005481105b151561046557600080fd5b61046f338361082e565b151561047a57600080fd5b610484828461086f565b7f8c5be1e5ebec7d5bd14f71427d1e84f3dd0314c0f7b2291e5b200ac8c7c3b925338484604051808473ffffffffffffffffffffffffffffffffffffffff1673ffffffffffffffffffffffffffffffffffffffff1681526020018373ffffffffffffffffffffffffffffffffffffffff1673ffffffffffffffffffffffffffffffffffffffff168152602001828152602001935050505060405180910390a1505050565b60008054905090565b8060008110158015610544575060005481105b151561054f57600080fd5b600073ffffffffffffffffffffffffffffffffffffffff168373ffffffffffffffffffffffffffffffffffffffff161415151561058b57600080fd5b61059583836108c5565b15156105a057600080fd5b6105aa848361082e565b15156105b557600080fd5b6105c0848484610931565b50505050565b600081600081101580156105db575060005481105b15156105e657600080fd5b60006004600085815260200190815260200160002060000160009054906101000a900473ffffffffffffffffffffffffffffffffffffffff1673ffffffffffffffffffffffffffffffffffffffff1614151561067a576004600084815260200190815260200160002060000160009054906101000a900473ffffffffffffffffffffffffffffffffffffffff1691506106a0565b600160009054906101000a900473ffffffffffffffffffffffffffffffffffffffff1691505b50919050565b6000600260008373ffffffffffffffffffffffffffffffffffffffff1673ffffffffffffffffffffffffffffffffffffffff168152602001908152602001600020549050919050565b60046020528060005260406000206000915090508060000160009054906101000a900473ffffffffffffffffffffffffffffffffffffffff16908060010160009054906101000a900473ffffffffffffffffffffffffffffffffffffffff1690806002019080600301908060040160009054906101000a90046fffffffffffffffffffffffffffffffff16908060040160109054906101000a900463ffffffff16908060040160149054906101000a900467ffffffffffffffff16905087565b80600081101580156107c2575060005481105b15156107cd57600080fd5b600073ffffffffffffffffffffffffffffffffffffffff168373ffffffffffffffffffffffffffffffffffffffff161415151561080957600080fd5b610813338361082e565b151561081e57600080fd5b610829338484610931565b505050565b60008273ffffffffffffffffffffffffffffffffffffffff16610850836105c6565b73ffffffffffffffffffffffffffffffffffffffff1614905092915050565b806003600084815260200190815260200160002060006101000a81548173ffffffffffffffffffffffffffffffffffffffff021916908373ffffffffffffffffffffffffffffffffffffffff1602179055505050565b60008273ffffffffffffffffffffffffffffffffffffffff166003600084815260200190815260200160002060009054906101000a900473ffffffffffffffffffffffffffffffffffffffff1673ffffffffffffffffffffffffffffffffffffffff1614905092915050565b600260008373ffffffffffffffffffffffffffffffffffffffff1673ffffffffffffffffffffffffffffffffffffffff16815260200190815260200160002060008154809291906001019190505550816004600083815260200190815260200160002060000160006101000a81548173ffffffffffffffffffffffffffffffffffffffff021916908373ffffffffffffffffffffffffffffffffffffffff160217905550816004600083815260200190815260200160002060010160006101000a81548173ffffffffffffffffffffffffffffffffffffffff021916908373ffffffffffffffffffffffffffffffffffffffff160217905550600073ffffffffffffffffffffffffffffffffffffffff168373ffffffffffffffffffffffffffffffffffffffff16141515610ae757600260008473ffffffffffffffffffffffffffffffffffffffff1673ffffffffffffffffffffffffffffffffffffffff16815260200190815260200160002060008154809291906001900391905055506003600082815260200190815260200160002060006101000a81549073ffffffffffffffffffffffffffffffffffffffff02191690555b7fddf252ad1be2c89b69c2b068fc378daa952ba7f163c4a11628f55a4df523b3ef838383604051808473ffffffffffffffffffffffffffffffffffffffff1673ffffffffffffffffffffffffffffffffffffffff1681526020018373ffffffffffffffffffffffffffffffffffffffff1673ffffffffffffffffffffffffffffffffffffffff168152602001828152602001935050505060405180910390a15050505600a165627a7a723058205ba621eeb228377f18ded5a5169bfa10c3972f2ee798cc9dd6fd7c4b89ecb5790029",
  "source": "pragma solidity ^0.4.17;\n\nimport \"./AbstractERC721.sol\";\n\ncontract PixelStore is ERC721 {\n    \n    struct Pixel {\n        address owner;\n        // Leaser for each pixelId. If the pixel is not stale, the leaser\n        // is the owner. If it is stale and rented, the leaser is the user who has\n        // rented the pixel\n        address leaser;\n        string url;\n        string comment;\n        uint128 price;\n        uint32 color;\n        // Time at which the pixel becomes available for renting\n        uint64 staleTime;\n    }\n    \n    uint totalPixels;\n    address defaultOwner;\n        \n    mapping (address => uint) ownershipPixelCount;\n    mapping (uint => address) pixelIndexToApproved;\n    mapping (uint => Pixel) public pixels;\n    \n    modifier isValidPixelId(uint _pixelId) {\n        require(_pixelId >= 0 && _pixelId < totalPixels);\n        _;\n    }\n        \n    function PixelStore(uint _totalPixels, address _defaultOwner) public {\n        defaultOwner = _defaultOwner;\n        totalPixels = _totalPixels;\n        ownershipPixelCount[defaultOwner] = totalPixels;\n    }\n        \n    function totalSupply() public view returns (uint256 total) {\n        total = totalPixels;\n    }\n    function balanceOf(address _owner) public view returns (uint256 balance) {\n        balance = ownershipPixelCount[_owner];\n    }\n    function ownerOf(uint256 _pixelId) public view isValidPixelId(_pixelId) returns (address owner) {\n        if (pixels[_pixelId].owner != 0) {\n            return pixels[_pixelId].owner;\n        }\n        return defaultOwner;\n    }\n    \n    function _transfer(address _from, address _to, uint256 _pixelId) internal {\n        ownershipPixelCount[_to]++;\n        pixels[_pixelId].owner = _to;\n        pixels[_pixelId].leaser = _to;\n        if (_from != address(0)) {\n            ownershipPixelCount[_from]--;\n            delete pixelIndexToApproved[_pixelId];\n        }\n        Transfer(_from, _to, _pixelId);\n    }\n\n    function _owns(address _claimant, uint256 _pixelId) internal view returns (bool) {\n        return (ownerOf(_pixelId) == _claimant);\n    }\n\n    function _approvedFor(address _claimant, uint256 _pixelId) internal view returns (bool) {\n        return pixelIndexToApproved[_pixelId] == _claimant;\n    }\n\n    function _approve(uint256 _pixelId, address _approved) internal {\n        pixelIndexToApproved[_pixelId] = _approved;\n    }\n\n    function transfer(address _to, uint256 _pixelId) external isValidPixelId(_pixelId) {\n        require(_to != address(0));\n        require(_owns(msg.sender, _pixelId));\n        _transfer(msg.sender, _to, _pixelId);\n    }\n\n    function approve(address _to, uint256 _pixelId) external isValidPixelId(_pixelId) {\n        require(_owns(msg.sender, _pixelId));\n        _approve(_pixelId, _to);\n        Approval(msg.sender, _to, _pixelId);\n    }\n\n    function transferFrom(address _from, address _to, uint256 _pixelId) external isValidPixelId(_pixelId) {\n        require(_to != address(0));\n        require(_approvedFor(_to, _pixelId));\n        require(_owns(_from, _pixelId));\n        _transfer(_from, _to, _pixelId);\n    }\n}",
  "sourcePath": "/Users/chrisumbach/Documents/CryptoBlockchain/Refactor-Fund-Eth/contracts/PixelStore.sol",
  "compiler": {
    "name": "solc",
    "version": "0.4.18+commit.9cf6e910.Emscripten.clang"
  },
  "schemaVersion": "1.0.1",
  "updatedAt": "2018-01-19T01:11:37.488Z"
}